:040000001AEF3FF0C4
:107DCD00088C82030EE82EFED700F08C9212008CE8
:107DDD0090010E28EC3FF0E7EC3EF0020E4BEC3F2D
:107DED00F01200056E8C90055028EC3FF0E7EC3E4C
:107DFD00F0040E4BEC3FF01200056E8C8005502800
:107E0D00EC3FF0E7EC3EF0040E4BEC3FF0120001BE
:107E1D006E040E0118D8B404D0080E0118D8A4129F
:107E2D000001C008F01200CD0EF66E7D0EF76E004B
:107E3D000EF86E0900F5CF08F0000EF86E00017611
:107E4D00EF3FF0046E040E0818D8A417D004C00339
:107E5D00F0F00E03168C500F0B03108C6EE7EC3EFA
:107E6D00F0010E4BEC3FF004C003F0033AF00E03AB
:107E7D00168C500F0B03108C6E1200080E0818D8BC
:107E8D00A4120004C08CFF1200026E1BD0050E015F
:107E9D006EDE0EE82EFED7012EFCD71200530EE833
:107EAD002EFED700F0350EE82EFED700F01200089A
:107EBD000EE82EFED700F01200030EE82EFED700BE
:107ECD00F012000250010AD8B4E1D7030AD8B4E683
:107EDD00D7010AD8B4ECD7070AD8A41200EDD70001
:107EED000E956E000E8C6E020E076E450E066EAA76
:107EFD000EE82EFED7062EFCD7072EFAD7040E0E4F
:107F0D00EC3FF0B2EC3FF0480E03EC3FF06F0E0388
:107F1D00EC3FF06C0E03EC3FF0610E03EC3FF020F4
:107F2D000E03EC3FF06D0E03EC3FF0750E03EC3FCE
:107F3D00F06E0E03EC3FF0640E03EC3FF06F0E039A
:107F4D00EC3FF0C00EF8EC3EF0380E03EC3FF03B8A
:107F5D000E03EC3FF0FFD78C90040E0818D8A40444
:107F6D00D08C500F0B300901D03F0E8C6EE7EC3EDC
:107F7D00F0010E4BEC3FF0040E0818D8A404D08C81
:107F8D00500F0B300901D03F0E8C6EE7EC3EF00325
:107F9D000E4BEC3FF0040E0818D8A404D08C500FF3
:107FAD000B300901D03F0E8C6EE7EC3EF0040E4B0A
:107FBD00EC3FF0040E0818D8A411D08C500F0B20F4
:107FCD00098C6EE7EC3EF0040E4BEC3FF02F0E28C3
:107FDD00EC3FF0E7EC3EF0040E4BEC3FF0EEEC3EE8
:107FED00F00F0E28EC3FF0E7EC3EF0040E4BEC3FAB
:037FFD00F012007F
:020000040020DA
:08000000FFFFFFFFFFFFFFFF00
:020000040030CA
:0E00000000091F1EFF8385FF0FC00FE00F4099
:00000001FF
